:100000000C940A060C9432060C9432060C94AE142E
:100010000C94AE140C94AE140C9432060C9432066C
:100020000C9432060C9432060C9432060C94320670
:100030000C9432060C9432060C9432060C94320660
:100040000C9464140C9432060C9432140C940C141A
:100050000C9432060C9432060C9432060C94320640
:100060000C9432060C94320600000000003E5B4FF8
:100070005B3E3E6B4F6B3E1C3E7C3E1C183C7E3C08
:10008000181C577D571C1C5E7F5E1C00183C180016
:10009000FFE7C3E7FF0018241800FFE7DBE7FF30A6
:1000A000483A060E2629792926407F050507407F14
:1000B00005253F5A3CE73C5A7F3E1C1C08081C1C87
:1000C0003E7F14227F22145F5F005F5F06097F017D
:1000D0007F006689956A606060606094A2FFA29468
:1000E00008047E040810207E201008082A1C080836
:1000F0001C2A08081E101010100C1E0C1E0C303884
:100100003E3830060E3E0E06000000000000005F84
:1001100000000007000700147F147F14242A7F2AA0
:100120001223130864623649562050000807030062
:10013000001C2241000041221C002A1C7F1C2A08AE
:10014000083E080800807030000808080808000011
:1001500060600020100804023E5149453E00427F85
:10016000400072494949462141494D331814127FD4
:100170001027454545393C4A494931412111090774
:100180003649494936464949291E000014000000F5
:1001900040340000000814224114141414140041C7
:1001A00022140802015909063E415D594E7C121184
:1001B000127C7F494949363E414141227F414141BC
:1001C0003E7F494949417F090909013E4141517337
:1001D0007F0808087F00417F41002040413F017FA8
:1001E000081422417F404040407F021C027F7F0470
:1001F00008107F3E4141413E7F090909063E4151B9
:10020000215E7F09192946264949493203017F01A8
:10021000033F4040403F1F2040201F3F4038403FA9
:10022000631408146303047804036159494D4300BF
:100230007F4141410204081020004141417F0402F6
:10024000010204404040404000030708002054548D
:1002500078407F284444383844444428384444286B
:100260007F385454541800087E090218A4A49C78BE
:100270007F0804047800447D40002040403D007F1A
:100280001028440000417F40007C047804787C08FA
:100290000404783844444438FC18242418182424CE
:1002A00018FC7C08040408485454542404043F44B3
:1002B000243C4040207C1C2040201C3C4030403CE2
:1002C00044281028444C9090907C4464544C440042
:1002D00008364100000077000000413608000201A6
:1002E0000204023C2623263C1EA1A161123A404092
:1002F000207A38545455592155557941225454780F
:1003000042215554784020545579400C1E527212A7
:100310003955555559395454545939555454580030
:1003200000457C410002457D420001457C407D1234
:1003300011127DF0282528F07C5455450020545496
:100340007C547C0A097F4932494949323A44444441
:100350003A324A4848303A4141217A3A424020787C
:10036000009DA0A07D3D4242423D3D4040403D3C7D
:1003700024FF2424487E4943662B2FFC2F2BFF09A2
:1003800029F620C0887E0903205454794100004496
:100390007D413048484A32384040227A007A0A0A81
:1003A000727D0D19317D2629292F282629292926F4
:1003B00030484D4020380808080808080808382F39
:1003C00010C8ACBA2F102834FA00007B00000814C3
:1003D0002A142222142A14085500550055AA55AA99
:1003E00055AAFF55FF55FF000000FF00101010FF39
:1003F00000141414FF001010FF00FF1010F010F094
:10040000141414FC001414F700FF0000FF00FF1484
:1004100014F404FC141417101F10101F101F1414D0
:10042000141F00101010F0000000001F101010101A
:100430001F10101010F010000000FF10101010100E
:1004400010101010FF10000000FF140000FF00FF4C
:1004500000001F10170000FC04F4141417101714E8
:1004600014F404F40000FF00F7141414141414140A
:10047000F700F7141414171410101F101F1414147D
:10048000F4141010F010F000001F101F0000001FE7
:1004900014000000FC140000F010F01010FF10FF1A
:1004A000141414FF141010101F00000000F010FFAF
:1004B000FFFFFFFFF0F0F0F0F0FFFFFF0000000093
:1004C00000FFFF0F0F0F0F0F3844443844FC4A4A17
:1004D0004A347E02020606027E027E0263554941CC
:1004E000633844443C04407E201E2006027E020203
:1004F00099A5E7A5991C2A492A1C4C7201724C3017
:100500004A4D4D303048784830BC625A463D3E49ED
:100510004949007E0101017E2A2A2A2A2A44445F91
:10052000444440514A444040444A51400000FF0185
:1005300003E080FF000008086B6B08361236243693
:10054000060F090F060000181800000010100030F8
:1005500040FF0101001F01011E00191D1712003C80
:100560003C3C3C000000000011007F962900010087
:100570007F9628003A0155C0021010C10141C50400
:1005800000228040360168B00100B102B011B40110
:1005900002B60302023BB701C63A0155F704A9515E
:1005A0002C82C0020D0DC1024300C20100C504002F
:1005B000480048B40100B60302023BE00F0F211CC3
:1005C0000B0E08499838091103141000E10F0F2F82
:1005D0002B0C0E06477637071104231E00B00100CE
:1005E000B30402000000B40100D003074218D10395
:1005F000000710D2020102D3020102D4020102C09C
:1006000005123B000211C103101088C50103C60189
:1006100002C80C003236450616377577540C00CCEC
:100620000100F603010100CF03008130ED046403F3
:100630001281E803851078CB05392C003402F701CC
:1006400020EA020000B00100B102001BB40100C0AA
:100650000121C10111C5023F3CC701B5360148F275
:100660000100260101E00F0F26240B0E0954A846B5
:100670000C17090F0700E10F00191B0410072A4788
:100680003903060630380F360100B00100C10410EE
:10069000100202C006003500000102C50104D202AA
:1006A0000104CA0100EA0180B903FF83577F967FE6
:1006B00096B60125C0065050013C1E08B407024002
:1006C000002A2A0D787F01F20B1616030808080885
:1006D00010041616FD03110235B2050C0C0033335D
:1006E000B70135BB012BC00104C20201FFC30111D8
:1006F000C40120C6010FD002A4A1E00ED000050E57
:10070000150D3743470915121619E10ED000050DD6
:100710000C062D44400E1C1816193A01557F0AB0DC
:100720000103E2013FC00122E20100B00100C0016B
:100730000AB00100000000000000000000000000FE
:1007400000000000FFFF0F0000040062080008081E
:100750000003000C01030B5A0203060903031710E0
:100760000403002305030017060309630703090CAC
:1007700008030C10090332221000160011000101B9
:1007800012000000130001000001300301013702D4
:100790000301000D800200610201B0C1FFFF3200C1
:1007A00001000001020000010300301009000100F7
:1007B0000C000000900000800F00000010020000FC
:1007C0001102EF001202000013028F010005000069
:1007D0000105000002055F0001040100040400009F
:1007E000FFFF320007000001FFFF3200000200009F
:1007F00001020000000000000000000000000000F6
:1008000000000100A4000100FFFF0A0060000027B3
:1008100008000808300014023100153732000406C1
:100820003300160E340011223500001536000785FE
:100830003700071438000314390020009000150019
:100840001000100411003702290046002A0046005B
:10085000070000001200890113000011FFFF96003D
:100860001200B90101000001020000020300301073
:10087000090001000A0000000D0000000E00300019
:10088000610001006A00000080000000810000009B
:1008900082005F009200000193000107FFFF5000FB
:1008A00007000001E500F0780100000102000002ED
:1008B00003003010040000000500000008000702DB
:1008C000090000000A0000000C0000000D000000FC
:1008D0000F000000100000001100070012000000CF
:1008E0001300000007000100FFFFC8001000901671
:1008F00011002702FFFF320012000D00FFFF32003F
:100900001300001229000A002B000D00FFFF320027
:10091000200000002100000030000000310004042D
:1009200032000300350005043600080837000704CC
:1009300038000303390007073C0004053D000808A0
:1009400060000027610001006A00000080000000D4
:10095000810000008200000083000000840000008D
:100960008500000090001000920000000700330195
:10097000E500008000000100010000010200000706
:10098000030030100400000008000202090000000B
:100990000A0000000C0000000D0000000F00000025
:1009A00010000000110007001200000013000000FA
:1009B000FFFF32001000B01711000700FFFF0A0010
:1009C00012003A01FFFF0A001300001A29000C0070
:1009D000FFFF0A003000000031000505320004006E
:1009E0003500060036000707370005013800020011
:1009F000390007073C0004073D000708600000A716
:100A0000610001006A0000002100000020000000D9
:100A100080000000810000008200000083000000D0
:100A2000840000008500000090001000920000008B
:100A3000930003009500100197000000980000004B
:100A400007007301FFFF3200FF000100F300080000
:100A50000000010001000001020000070300301047
:100A60000800020309000000100000001100070048
:100A70001200000013000000FFFF32001000B0144D
:100A8000FFFF0A0011000700FFFF0A0012008E009E
:100A90001300000C29001500FFFF0A0030000000C1
:100AA0003100070132000000350003023600020465
:100AB0003700000038000702390000003C00030244
:100AC0003D000304600000A76100010090002900C0
:100AD00007003301FFFF3200150030009A001000BC
:100AE00011002000100028341200020013003810FA
:100AF000FFFF280012001200FFFF28001000203422
:100B000013004530FFFF46003000000031000204B2
:100B100032000703330004033400040035000104ED
:100B200036000707370005033800100639001006A5
:100B30000100000102000003030030100800080853
:100B40000A000800600000276100010090003E01DB
:100B50009200000193000001A0000030A3001000EB
:100B600007000100070021000700230007003300F1
:100B70000700330111001A001200213113006C002C
:100B80001400494210000008FFFF0A0011001A017A
:100B9000FFFF0A0011001A03FFFF0A0011001A07E5
:100BA000FFFF0A0011001A0FFFFF0A0011003A0FA1
:100BB000FFFF1E00010028010200000103003010A9
:100BC00007001210080003030B0000110C000000C6
:100BD0000F0001181500200050000101510003060C
:100BE0005200080453000000540005065500060496
:100BF000560003035700030358001000590000106B
:100C000007001200FFFF280007001300070017006D
:100C1000B814161C11241FBECFEFD8E0DEBFCDBF25
:100C200022E0ACE6B1E001C01D92A735B207E1F7C2
:100C300011E0A0E0B1E0EAE0FDE302C005900D9212
:100C4000AC36B107D9F716E0C9E0D6E004C0219769
:100C5000FE010E947B1CC830D107C9F70E94151500
:100C60000C94781E0C9400000895AF92BF92CF921E
:100C7000DF92EF92FF920F931F93CF93DF936C015C
:100C80007B018B01040F151FEB015E01AE18BF083D
:100C9000C017D10759F06991D601ED91FC910190EF
:100CA000F081E02DC6010995892B79F7C501DF9107
:100CB000CF911F910F91FF90EF90DF90CF90BF9059
:100CC000AF900895FC01538D448D252F30E0842F83
:100CD00090E0821B930B541710F0CF960895019764
:100CE0000895FC01918D828D981761F0A28DAE0F51
:100CF000BF2FB11D5D968C91928D9F5F9F73928FD8
:100D000090E008958FEF9FEF08952FB7F8948091AA
:100D1000760190917701A0917801B09179012FBF70
:100D20008093830190938401A0938501B093860101
:100D30008BE791E00E94710697FF26C02FB7F894C9
:100D40008091760190917701A0917801B09179011D
:100D50002FBF409183015091840160918501709172
:100D60008601841B950BA60BB70B40917F01509118
:100D70008001609181017091820184179507A60717
:100D8000B707B0F28FEF9FEF0895FC01918D828D30
:100D9000981731F0828DE80FF11D858D90E0089550
:100DA0008FEF9FEF0895FC01918D228D892F90E0A8
:100DB000805C9F4F821B91098F73992708958BE761
:100DC00091E00E94D30621E0892B09F420E0822FD4
:100DD000089580E090E0892B29F00E94DF068111C0
:100DE0000C9400000895FC01A48DA80FB92FB11D2B
:100DF000A35ABF4F2C91848D90E001968F73992751
:100E0000848FA689B7892C93A089B1898C9183702E
:100E100080648C93938D848D981306C00288F38927
:100E2000E02D80818F7D80830895EF92FF920F9354
:100E30001F93CF93DF93EC0181E0888F9B8D8C8D86
:100E400098131AC0E889F989808185FF15C09FB77A
:100E5000F894EE89FF896083E889F989808183703D
:100E6000806480839FBF81E090E0DF91CF911F91EC
:100E70000F91FF90EF900895F62E0B8D10E00F5F0D
:100E80001F4F0F731127E02E8C8D8E110CC00FB6E3
:100E900007FCFACFE889F989808185FFF5CFCE017B
:100EA0000E94F306F1CFEB8DEC0FFD2FF11DE35AFD
:100EB000FF4FF0829FB7F8940B8FEA89FB898081FE
:100EC0008062CFCFCF93DF93EC01888D8823B9F078
:100ED000AA89BB89E889F9898C9185FD03C0808145
:100EE00086FD0DC00FB607FCF7CF8C9185FFF2CFC2
:100EF000808185FFEDCFCE010E94F306E9CFDF911F
:100F0000CF9108953FB7F89480916F01909170014F
:100F1000A0917101B091720126B5A89B05C02F3F29
:100F200019F00196A11DB11D3FBFBA2FA92F982F0F
:100F30008827BC01CD01620F711D811D911D42E00A
:100F4000660F771F881F991F4A95D1F708958F92D2
:100F50009F92AF92BF92CF92DF92EF92FF926B017E
:100F60007C010E9482074B015C01C114D104E104A1
:100F7000F104B9F00E948207681979098A099B096E
:100F8000683E73408105910580F321E0C21AD108C3
:100F9000E108F10888EE880E83E0981EA11CB11CC0
:100FA000E4CFFF90EF90DF90CF90BF90AF909F90F5
:100FB0008F9008954398429825B12C7F392F337034
:100FC000232B25B92BB123709C7F922B9BB9419881
:100FD000419A95B19C7F282F2370922B95B99BB194
:100FE00093708C7F892B8BB94198419A429AFA0170
:100FF000615078F0219195B19C7F822F8370982B5E
:1010000095B98BB183702C7F822B8BB94198419A13
:10101000EFCF439A0895DF92EF92FF920F931F93C1
:10102000CF93DF93CDB7DEB768970FB6F894DEBFE6
:101030000FBECDBF7C018B01F70184913196D49016
:10104000F2E0EF0EF11C8F3779F0DE01119630E0FF
:1010500020E0AD012D1528F5F701E20FF31FE49113
:10106000ED932F5F3F4FF6CF6D2D70E090E080E065
:101070000E94A707D12CED2DF0E032960E1B1F0B1E
:1010800010161106CCF268960FB6F894DEBF0FBEAC
:10109000CDBFDF91CF911F910F91FF90EF90DF9027
:1010A0000895ED0CF11C6D2D90E00E94DA07E3CF5E
:1010B0004398429825B12C7F392F3370232B25B9C3
:1010C0002BB123709C7F922B9BB94198419A95B18B
:1010D0009C7F282F2370922B95B99BB193708C7FA6
:1010E000892B8BB94198419A429A85B18C7F972F71
:1010F0009370892B85B98BB183707C7F782B7BB9FA
:101100004198419A85B18C7F962F9370892B85B930
:101110008BB183706C7F682B6BB94198419A439A6D
:10112000089581E080937A0184B1836084B98AB1A3
:101130008C6F8AB9389A399A3A9A3B9A3C9A439A70
:10114000409A419A449A62E370E080E090E00E9405
:10115000A707449864E670E080E090E00E94A7074B
:10116000449A64E670E080E090E00E94A70770E097
:1011700060E080EB90E00C945808CF93DF93C82F89
:10118000D62F80917A01811102C00E949108439864
:10119000429885B18C7F85B98BB183708BB94198AA
:1011A000419A95B19C7F8C2F8370982B95B98BB108
:1011B0008370CC7F8C2B8BB94198419A429A84B131
:1011C0008C7F84B98AB183708AB961E070E080E075
:1011D00090E00E94A707409A40984098409893B1A9
:1011E00039B1409A409A40984098409883B129B1CB
:1011F000409AD15080F7409A439A44B1436044B931
:101200004AB14C6F4AB993703C7F932B83702C7F0B
:10121000822BDF91CF910895FF920F931F93CF936D
:10122000DF938C0160E00E94BD08EC0161E0C80121
:101230000E94BD08F82E62E0C8010E94BD08AE0100
:1012400070E060E0742F66275527442700E030E007
:1012500020E0402B5F29622B732B292F30E0C9013E
:10126000B0E0A0E08A019B01082B192B2A2B3B2B15
:10127000C901B801DF91CF911F910F91FF9008959F
:101280000F931F93CF93DF938C0160E00E94BD0802
:10129000EC0161E0C8010E94BD088C01BE0190E034
:1012A00080E0CB017727662730E020E0602B712BB0
:1012B000822B932BDF91CF911F910F9108950F9364
:1012C0001F93CF93DF93EC018B01FE0185919491E5
:1012D000FE0132962496659174918F3F980771F4C0
:1012E00090E080E00E94A707045011091016110633
:1012F00064F3DF91CF911F910F9108950E945808D8
:10130000F3CFFC01262F358D868D82958170982F25
:101310009627692F70E072A361A330FF0CC082137F
:1013200007C080E290E050E040E060E00C94DA0713
:1013300081E290E0F8CF878D90A1873222E9920771
:10134000C0F4853222E9920758F4803224E59207EE
:10135000B9F0833927E7920799F084359140A1F4D9
:10136000660F771F660F771F636187E090E00C942C
:101370005808863223E9920719F08930954B21F4F9
:10138000626081E094E0F3CF81E690E0F0CF8F924D
:101390009F92AF92BF92CF92DF92EF92FF920F9304
:1013A0001F93CF93DF9300D000D0CDB7DEB77C0181
:1013B0004B015A016901FC01878D90A18732F3E945
:1013C0009F0709F040C0F7018689823099F5F0E265
:1013D000AF0EB11C005E1F4FF701858D80FF4AC024
:1013E00085A599828A82DB82CC82AE014F5F5F4FF6
:1013F00064E090E00E94DA07F70181A9B982AA822D
:101400001B830C83AE014F5F5F4F64E090E00E944E
:10141000DA070F900F900F900F90DF91CF911F91EF
:101420000F91FF90EF90DF90CF90BF90AF909F9083
:101430008F900895833081F620E2820E911C80E225
:10144000C80ED11CC9CF8632954131F6F701868985
:1014500080FFC2CFC801841B950B19F40F5F1F4F8B
:10146000BBCF6217730709F0B7CF6B01C80ED91E47
:101470008A01B2CFB40187A190A50E945808B50196
:10148000F70181A592A50E945808C814D90421F437
:101490000A151B0509F4BDCFF701858D85FF08C02E
:1014A000868980FF1EC0102F0027A02AB12A85013F
:1014B000B401F70185A596A50E945808B501F7016A
:1014C00081A992A90E945808B601F70187A590A9A1
:1014D0000E945808B801F70183A994A90E945808EE
:1014E00098CFDC2CCC248C289D286401E1CFAF92CE
:1014F000BF92CF92DF92EF92FF920F931F93CF9301
:10150000DF93EC0180917301882349F0C701880FB4
:10151000991F8E739927E1ECEE22E82AF92A37FF0A
:1015200005C0620F731F319521953109260F371FB2
:1015300077FF02C070E060E0888599852817390739
:101540000CF4C9016C01C61AD70A17FF05C0400F79
:10155000511F119501951109040F151F57FF02C066
:1015600050E040E02A853B85021713070CF49801F0
:101570005901A41AB50A8901015011099C01215091
:101580003109CE010E94C709439842983BA58CA51A
:1015900025B12C7F982F9370292B25B99BB193707F
:1015A0008C7F982B9BB94198419A95B19C7F832F52
:1015B0008370982B95B98BB183703C7F832B8BB94B
:1015C0004198419A429ACA14DB042CF09A2D8B2D33
:1015D0005601C92ED82E9F2D4F2D43709C7F5E2D16
:1015E00053702E2D2C7FE22E1C141D04E4F4950163
:1015F00085B18C7F842B85B98BB18370892B8BB996
:101600004198419A85B18C7F852B85B98BB18370C8
:101610008E298BB94198419A2150310949F781E0CF
:10162000C81AD108E1CF439A8D8D80FF08C08F8DF5
:1016300098A18632954191F48E8980FF0FC00A856A
:101640001B8501501109288539852150310950E049
:1016500040E070E060E0CE010E94C709DF91CF91C9
:101660001F910F91FF90EF90DF90CF90BF90AF90C0
:101670000895EF92FF920F931F93CF93DF937C0116
:10168000E90177FD2AC057FD28C0FC0180859185BE
:101690006817790714F58285938548175907ECF484
:1016A00080917301882341F0C901880F991F8E73BF
:1016B0009927C17CC82BD92B8A019B01C7010E94A5
:1016C000C709BE01F70183A594A5DF91CF911F91B2
:1016D0000F91FF90EF900C945808DF91CF911F91DC
:1016E0000F91FF90EF900895EF92FF920F931F9349
:1016F000CF93DF93CDB7DEB72A970FB6F894DEBF4E
:101700000FBECDBF7C01862F8370F701868B962F8D
:10171000917060FFF1C026813781F7013187208702
:10172000992309F4ECC024813581F701338722879E
:10173000823009F4E9C0833009F4E8C0813009F44B
:10174000E1C088E48A87F701258D368D30FF03C01C
:101750008A8580588A8731FF04C08A8590E489276A
:101760008A8733FF04C08A8598E089278A87F70132
:10177000878D90A120FFFAC08431F8E69F0709F019
:10178000C7C09A85892F88728A871F82892F85957D
:101790008074282F2260892F90E09595879580721C
:1017A0009927822B88878BE38987AE01495F5F4F3A
:1017B00063E086EB90E00E94DA072AE230E0F7016E
:1017C00030A727A38BE290E092A781A74CE250E0DC
:1017D00054A743A736A725A730AB27A792AB81AB69
:1017E00094AB83ABAE01465F5F4F61E086E390E070
:1017F0000E94DA078A8590E0F70194A383A3F7019A
:10180000868980FF1CC0858D968D92FD18C087A1AA
:1018100090A521A532A530A727A392A781A785A5CA
:1018200096A521A932A936A725A792AB81AB87A59A
:1018300090A923A934A930AB27A794AB83ABF701B8
:101840000285138501501109208531852150310908
:1018500050E040E070E060E0C7010E94C709F70176
:1018600066817781878D90A110E000E020E08732CB
:10187000F3E99F0769F4F7012689225010E000E0A0
:10188000223010F400E210E020E230E0201B310BA7
:10189000F701458D40FF24C119820A837B836C8345
:1018A0001D822E83AE014F5F5F4F66E083E390E0C1
:1018B0000E94DA0719820A83AE014F5F5F4F62E030
:1018C00087E390E00E94DA07F701858D80FF07C06B
:1018D00050E040E060E083E190E00E94DA072A9661
:1018E0000FB6F894DEBF0FBECDBFDF91CF911F9131
:1018F0000F91FF90EF900895248135810ECF2681BE
:10190000378113CF88E21ECF88E91CCF88EF1ACF2A
:10191000833629E1920749F0813844E9940729F098
:101920008131E5E19E0709F048CF2A8527FF02C0F3
:1019300021602A872A8526FF02C022602A878336F3
:10194000F9E19F0721F48A858F738A8736CF813822
:1019500024E9920719F48A858F72F7CF8131954176
:1019600009F02BCF8A858F7E806CEFCF6A85262F7A
:10197000062E000C330B8339F7E79F0761F008F060
:1019800042C08435E1E09E0709F46AC08032F4E584
:101990009F0709F041C040E052E0F70150A747A37C
:1019A00041E052E052A741A742E052E054A743A7CA
:1019B00040E152E056A745A741E152E050AB47A7AE
:1019C00042E152E052AB41AB43E152E054AB43AB96
:1019D000222730788632F3E99F0729F060E07AE623
:1019E0008032944511F460E075E3622B732B80E044
:1019F00094E00E9458086A85F4E06F9FB0011124BA
:101A00006627717055C0863243E9940721F2893008
:101A1000E5EB9E0709F4BFCF80E290E0F70190A7C5
:101A200087A381E290E092A781A782E290E094A749
:101A300083A780E590E096A785A781E590E090AB2D
:101A400087A782E590E092AB81AB83E590E094AB11
:101A500083ABB90166277078776280E690E0C9CFE2
:101A600087E390E0F70196A785A786E390E090AB27
:101A700087A789E390E092AB81AB88E390E094ABD9
:101A800083AB80E290E090A787A381E290E092A7E9
:101A900081A782E290E094A783A7F4E06F9FB00152
:101AA000112466277170222732702862622B732BF3
:101AB00081E090E00E9458088A85682F70E0759553
:101AC0006795759567956870772783FD706160638A
:101AD000F70174A363A383E090E00E9458088FCEBF
:101AE0008339F7E79F0789F1F8F4803244E59407DA
:101AF00061F18338E7E79E07A1F184359140E9F46D
:101B0000600F711F6150710981E390E00E945808D5
:101B1000B80182E390E00E94580870E060E083E33F
:101B200090E00E945808DBCE863223E9920769F0E4
:101B300048F485529249029718F3F70161A172A106
:101B4000626012C08930954BC1F7F70161A172A1A3
:101B5000626081E094E00E945808B80184E094E05B
:101B6000E0CFF70161A172A181E690E00E945808E0
:101B7000B8018AE690E0D5CFEF92FF920F931F93C2
:101B8000DC01ED91FC9100A0F1A1E02D780101E0D4
:101B900010E009951F910F91FF90EF900895EF923B
:101BA000FF920F931F93DC01ED91FC9100A0F1A136
:101BB000E02D7801890121E030E009951F910F9116
:101BC000FF90EF9008950895FC016370668B848107
:101BD000958126813781613039F0633029F0918712
:101BE000808733872287089531872087938782876C
:101BF00008952F923F924F925F926F927F928F92B1
:101C00009F92AF92BF92CF92DF92EF92FF920F938B
:101C10001F93CF93DF93CDB7DEB76A970FB6F894D3
:101C2000DEBF0FBECDBF9A8F898F7A8369834A0149
:101C3000D22E18870F833701BC2CDC0159962D91C9
:101C40003C915A972115310509F015C118968D91CF
:101C50009C911997681779070CF0D7C11A968D9146
:101C60009C91481759070CF0D0C14C2C512CB6E070
:101C7000CB9E600D711D11247C876B87161617068D
:101C80000CF0C3C1EA2DF0E0FA87E98793E0EE0F8C
:101C9000FF1F9A95E1F7F88BEF87CF01840F951F0F
:101CA000181619060CF0B1C1A98DBA8D58968C91F1
:101CB000811104C0BFEABD1508F4D394A98DBA8D73
:101CC000ED91FC9111970284F385E02DCD010995EA
:101CD000B5E0DB9EC0011124E981FA81FC83EB832E
:101CE000312C212C9C0128593F4F388F2F8B4A2DA6
:101CF00050E05E8B4D8BEF89F88DE20DF31D449122
:101D00009E828D82D12CC12C69817A81620D731DD6
:101D10007A8B698B842F90E09C8B8B8BE98DFA8D6D
:101D2000A081B18140FF82C0F1E0BF126FC0AF124D
:101D30006DC01C96ED91FC912F813885A4014C0D4E
:101D40005D1D69897A89898D9A8D0995EB89FC8950
:101D5000F595E7954E2F5FEFC51AD50A6D817E8107
:101D60008D899E89680F791F7E836D8398E0C916DF
:101D7000D10481F6AFEF2A1A3A0AEB81FC81E40D17
:101D8000F51DFC83EB83F5E02F16310409F0B3CF8A
:101D90002F81388526153705B9F0A98DBA8DED91BB
:101DA000FC91B1E0BB1257C0AB1255C069817A817A
:101DB0006B5F7F4F0088F189E02D830128E030E0E0
:101DC000A401898D9A8D0995A98DBA8DED91FC910B
:101DD00011970688F789E02DCD016A960FB6F89421
:101DE000DEBF0FBECDBFDF91CF911F910F91FF904E
:101DF000EF90DF90CF90BF90AF909F908F907F90AB
:101E00006F905F904F903F902F9009941E96ED91A8
:101E1000FC91EF80F88409851A8592014D815E81DD
:101E20006B817C81898D9A8D099590CF2F81388522
:101E30002615370509F48ACF31E0B31207C0A31283
:101E400005C01C96ED91FC91930178CF1E96ED9103
:101E5000FC917301E0CF6B857C856419750906845C
:101E6000F785E02D73010F8518899201A401898DF2
:101E70009A8D0995A9CFF90134969491329745919D
:101E80005491D91AB7E0DB9E400D511D1124F90180
:101E9000259134913C8B2B8BFA0125903490FA01DB
:101EA0003296749031963491398B32966490319693
:101EB000449041E04C1518F04A1508F07FC0662D9B
:101EC000062C000C770B7C836B83842D042C000C78
:101ED000990B9E838D83A98DBA8DED91FC911197FD
:101EE0000284F385E02DCD010995512CD12CC12C14
:101EF000EA2DF0E0FA87E9872B2D30E03C872B872D
:101F0000A401440D511D47FC5A95588F4F8B698190
:101F10007A81660D711D67FC7A957E876D87798958
:101F2000C71608F051CF2C2D30E04D815E81420F55
:101F3000531FA985BA854A9FC0014B9F900D5A9F98
:101F4000900D1124FC01E80DF91DF88BEF87852D0C
:101F5000612C4F89588D420F531F5E8B4D8B671438
:101F600008F050C044244394480E877041F4C101E6
:101F70000196EB89FC89E20DF31DD4901C01D7FE7C
:101F800019C0A98DBA8DED91FC91662D70E0B1E07C
:101F9000BB1219C0AB1217C02D853E85620F731F8F
:101FA0000484F585E02D2F8138854D895E89898DE2
:101FB0009A8D0995DD0C6394842DD1CF1E821D82EC
:101FC0001C821B8288CF4B815C81640F751FAB859F
:101FD000BC856A9FC0016B9F900D7A9F900D112464
:101FE00069817A81680F791F0684F785E02DEF807B
:101FF000F88409851A859D014F855889898D9A8DA8
:102000000995D8CF570CC3948ACF6A960FB6F89427
:10201000DEBF0FBECDBFDF91CF911F910F91FF901B
:10202000EF90DF90CF90BF90AF909F908F907F9078
:102030006F905F904F903F902F9008958F929F9256
:10204000AF92CF92EF92FF920F931F93CF93DF93B4
:10205000EC01262F898D9A8D009709F051C06A30C6
:10206000D1F41D861C868D8948E0849F900111243F
:102070008E859F85820F931F9F878E8781E090E0DA
:10208000DF91CF911F910F91FF90EF90CF90AF9084
:102090009F908F9008956D3089F3CC88AD888F899B
:1020A0008823C1F08C859D8536E0C39E800D911DEF
:1020B0001124488559854817590764F44E855F8572
:1020C0001D861C8638E0A39EC0011124840F951F35
:1020D0009F878E87EA88FB88088919894E855F85E6
:1020E0006C857D85CE010E94F90D2C898C859D859E
:1020F00046E0249F800D911D11249D878C87BECFC3
:102100006A3069F41D861C86FC013696E4912D899F
:102110008E859F85E29F800D911D1124ADCF6D307E
:1021200009F4ACCFFC0134963491631708F4A6CFC0
:102130003196E491E61708F4A1CFFC013296859020
:102140009490462F431B342F47E0349F800C911C02
:102150001124F401329634913196E4913323A9F19C
:10216000EE2399F1CC88F4013596E491AD884F893E
:10217000442301F10E2E000CFF0BE30FF11DCE9E48
:10218000A001CF9E500D11246C857D85460F571FF1
:1021900068857985641775076CF44E855F851D86A3
:1021A0001C86FC013696E491AE9E400D511D112413
:1021B0005F874E87EA88FB88088919894E855F8585
:1021C0006C857D85CE010E94F90DF4013496E49171
:1021D0002C898C859D85E29F800D911D11248DCFCA
:1021E0006F927F928F929F92AF92BF92CF92DF9227
:1021F000EF92FF920F931F93CF93DF93EC016B014C
:102200005A0139014801E881F9810284F385E02D02
:102210000995E881F9810288F389E02D870193010E
:10222000A501B601CE010995A501480D591D4150E2
:102230005109E881F9810288F389E02D9301B60103
:10224000CE010995E881F9810088F189E02D94019A
:10225000A501B601CE010995C60CD71CB601615087
:102260007109E881F9810088F189E02D9401A501C7
:10227000CE010995E881F9810688F789E02DCE0124
:10228000DF91CF911F910F91FF90EF90DF90CF9052
:10229000BF90AF909F908F907F906F9009946F92B6
:1022A0007F928F929F92AF92BF92CF92DF92EF92E6
:1022B000FF920F931F93CF93DF935C01EB016A01B1
:1022C000490138018701DC01ED91FC916217730728
:1022D00019F5641675062CF0962D872D3A01C92E36
:1022E000D82E9601261937092F5F3F4F048CF58DA4
:1022F000E02DA301BE01C5010995DF91CF911F918A
:102300000F91FF90EF90DF90CF90BF90AF909F9094
:102310008F907F906F9008954615570591F426177A
:10232000370724F0892D4B01C22FD82F9E01281981
:1023300039092F5F3F4F068CF78DE02DA601B401C0
:10234000DACF0284F385E02D0995D501ED91FC915A
:102350000488F589E02D83019401A601BE01C50121
:102360000995D501ED91FC910688F789E02DC5010D
:10237000DF91CF911F910F91FF90EF90DF90CF9061
:10238000BF90AF909F908F907F906F900994EF9245
:10239000FF920F931F93DC011A960D911C911B97CE
:1023A00018962D913C911997ED91FC9100A0F1A107
:1023B000E02D7B0150E040E070E060E009951F9166
:1023C0000F91FF90EF9008954F925F926F927F92DE
:1023D0008F929F92AF92BF92CF92DF92EF92FF9235
:1023E0000F931F93CF93DF936C012B015A01390197
:1023F0004801DC01ED91FC910284F385E02D099503
:10240000E201640C751CD601ED91FC91C615D7054F
:102410005CF40088F189E02D87019401A501BE01DB
:10242000C60109952196EFCF0688F789E02DC601F0
:10243000DF91CF911F910F91FF90EF90DF90CF90A0
:10244000BF90AF909F908F907F906F905F904F90D4
:1024500009948F929F92AF92BF92CF92DF92EF92A8
:10246000FF920F931F93CF93DF93EC015B014A011F
:102470006901E881F9810284F385E02D09959501D0
:102480002C0D3D1D21503109E881F9810488F58921
:10249000E02D78018401A401B501CE010995E88100
:1024A000F9810688F789E02DCE01DF91CF911F9148
:1024B0000F91FF90EF90DF90CF90BF90AF909F90E3
:1024C0008F9009948F929F92AF92BF92CF92DF929A
:1024D000EF92FF920F931F93CF93DF93EC015B0179
:1024E0004A0169017801E881F9810284F385E02DD0
:1024F0000995C80CD91C860101501109E881F981A0
:102500000488F589E02D9501A401B501CE01099556
:10251000E881F9810688F789E02DCE01DF91CF911E
:102520001F910F91FF90EF90DF90CF90BF90AF90F1
:102530009F908F9009940895EF92FF920F931F93AD
:10254000DC01ED91FC9100A0F1A1E02D09951F9116
:102550000F91FF90EF9008950F931F93DC01ED9181
:10256000FC91068CF78DE02D09951F910F91089530
:102570000F931F93DC01ED91FC91048CF58DE02D00
:1025800009951F910F910895DC01ED91FC91008454
:10259000F185E02D09942F923F924F925F926F92B6
:1025A0007F928F929F92AF92BF92CF92DF92EF92E3
:1025B000FF920F931F93CF93DF9300D000D000D0F2
:1025C000CDB7DEB73C016A013E832D83FC82EB82EE
:1025D0005801A41AB50AB7FE03C0B194A194B1087A
:1025E0008D809E80861A970A97FE03C091948194ED
:1025F00091088A149B045CF0902F812F0D811E811D
:102600009D838E839C2D8D2D6B01692F782F0C154A
:102610001D055CF09D818E817E836D83692F782FEF
:10262000902F812F8601C92ED82E1601201A310A2B
:102630002B012D813E81421A530A57FE03C051944B
:1026400041945108710137FE03C03FEFE31AF30ACA
:10265000F594E7948D819E81861797075CF5A1E03C
:10266000B0E0BA83A983C016D1064CF1D301ED9135
:10267000FC910484F585E02D2B813C81A8016D81BE
:102680007E818A149B041CF04D815E81B801C301D8
:102690000995E418F508F7FE0AC02D813E8189816D
:1026A0009A81280F391F3E832D83E20CF31C0F5FA4
:1026B0001F4FD9CF2FEF3FEF3A832983D4CF2696F0
:1026C0000FB6F894DEBF0FBECDBFDF91CF911F9143
:1026D0000F91FF90EF90DF90CF90BF90AF909F90C1
:1026E0008F907F906F905F904F903F902F900895C4
:1026F00090E080E00895EF92FF920F931F93DC012A
:102700001A960D911C911B9718962D913C91199733
:10271000ED91FC9100A0F1A1E02D7B0150E040E0A3
:1027200070E060E009951F910F91FF90EF90089580
:102730000E94631E0F931F93CF93DF93EC01888158
:102740009981009759F02A813B812617370730F08D
:1027500081E0DF91CF911F910F9108958B016F5F01
:102760007F4F0E94A61D009759F0998388831B8391
:102770000A832C813D81232B59F7FC011082E8CF7D
:1027800080E0E7CFCF93DF93EC0170E060E00E9440
:102790009A132881398181110FC02115310519F053
:1027A000C9010E941D1D198218821D821C821B8274
:1027B0001A82DF91CF9108951D821C826BE671E031
:1027C000C901DF91CF910C94711EEF92FF920F938C
:1027D0001F93CF93DF9341155105B1F07B01EC01BD
:1027E0000C811D81040F151FB8010E949A138823C4
:1027F00061F0288139818C819D81B701820F931FFF
:102800000E94711E1D830C8381E0DF91CF911F9187
:102810000F91FF90EF9008951F920F920FB60F92B5
:1028200011242F933F934F935F936F937F938F93D5
:102830009F93AF93BF93EF93FF938BE791E00E9439
:10284000F306FF91EF91BF91AF919F918F917F918F
:102850006F915F914F913F912F910F900FBE0F900D
:102860001F9018951F920F920FB60F9211242F935D
:102870008F939F93EF93FF93E0918B01F0918C01E5
:102880008081E0919101F091920182FD1BC09081C5
:10289000809194018F5F8F7320919501821741F091
:1028A000E0919401F0E0E558FE4F958F80939401FC
:1028B000FF91EF919F918F912F910F900FBE0F90ED
:1028C0001F9018958081F4CF1F920F920FB60F9230
:1028D00011242F933F938F939F93AF93BF93809136
:1028E000760190917701A0917801B09179013091B2
:1028F0006E0123E0230F2D3758F50196A11DB11D60
:1029000020936E018093760190937701A0937801D4
:10291000B093790180916F0190917001A091710144
:10292000B09172010196A11DB11D80936F0190932A
:102930007001A0937101B0937201BF91AF919F910B
:102940008F913F912F910F900FBE0F901F90189570
:1029500026E8230F0296A11DB11DD2CF1F920F9220
:102960000FB60F9211240F900FBE0F901F90189565
:10297000EBE7F1E01382128288EE93E0A0E0B0E092
:1029800084839583A683B78385E191E091838083D7
:1029900085EC90E09587848784EC90E09787868724
:1029A00080EC90E0918B808B81EC90E0938B828B1C
:1029B00082EC90E0958B848B86EC90E0978B868BF5
:1029C000118E128E138E148EEEE1F2E013821282BB
:1029D00020EF30E03583248380E491E09783868381
:1029E0003187208793878287168A158614861786F3
:1029F000168681E0858B848B2FEF3FEF338B228B04
:102A0000318B208B878B108E128E118E87E291E096
:102A100091838083E8E1F2E01182108213821282B6
:102A200015821482CF010C94C213CF93DF93CDB7DC
:102A3000DEB728970FB6F894DEBF0FBECDBF7894EF
:102A400084B5826084BD84B5816084BD85B58260B3
:102A500085BD85B5816085BD80916E008160809364
:102A60006E001092810080918100826080938100CD
:102A700080918100816080938100809180008160DD
:102A8000809380008091B10084608093B100809138
:102A9000B00081608093B00080917A008460809360
:102AA0007A0080917A00826080937A0080917A0027
:102AB000816080937A0080917A00806880937A00A8
:102AC0001092C1000E94910860E090E080E00E94B6
:102AD000BD087C01883024E5920721F1803244E56D
:102AE000940701F18938994809F408C160E087E644
:102AF00090E00E94BD0877E4E72E73E8F72E873454
:102B0000974481F081EA90E00E9440096130F1E64B
:102B10007F0709F4F8C06F3F7F4FC1F586E2E82ECA
:102B200085E1F82E0E94910810923A021092390223
:102B3000F0923E02E0923D0297E5E91693E8F9062D
:102B400009F488C408F0A5C3F5E3EF16F5E4FF0621
:102B500009F46AC408F017C340E2E41645E1F4063C
:102B600009F455C408F0DCC284E5E81681E0F806F3
:102B700009F43EC408F0D6C0E9E9EE16F10409F400
:102B800082C410922302109222023EC48FEB90E086
:102B90000E940C097B01673543E8740719F261381C
:102BA000744909F4BFCF81E1E81685E1F80609F41C
:102BB000B9CF90E2E91695E1F90609F4B3CFE6E260
:102BC000EE16E5E1FE0609F4A9CFF1E8EF16F5E10E
:102BD000FF0609F4A7CFE11424E1F20609F498C036
:102BE00084ED90E00E9440097B016031734509F457
:102BF00099CF87ED90E00E9440097B0161337048D6
:102C000009F490CF8FEE90E00E940C097B0187E2DF
:102C1000E81683E9F80609F485CF8EEF90E00E946C
:102C20004009672F782F892F99277B0193E5E916B3
:102C300090E2F90609F476CF84E090E00E94400922
:102C40007B01811125C06115704811F58091060145
:102C500090910701A091080189839A83AB83AE010B
:102C60004F5F5F4F63E089EB90E00E94DA0760E01E
:102C700080ED90E00E94BD08A9E9EA2EF12C893987
:102C800009F450CF8039A9F4F0E9EF2EFE2C4ACF99
:102C9000F6E2EF16F5E1FF0609F440CF22E5E21671
:102CA00025E8F206D1F141E1E4164CEAF40609F414
:102CB00039CF83ED90E00E944009872FE62EF72E52
:102CC0008359823008F42ECF783909F42BCF773727
:102CD00009F428CF763109F425CF53EDE516F10438
:102CE00009F420CF83EDE816F80609F41BCF60E065
:102CF00090E080E00E94BD087C0114CFE9E8EE2E50
:102D0000E2E1FE2E0FCF63E6E62E69E1F62E0ACF52
:102D100054E1E52E58E6F52E05CF49E8E42E47E7C5
:102D2000F42E00CFF5E0EF16F5E1FF0609F4C4C379
:102D300021E1E21625E1F20609F023CF83E090E0DD
:102D400090933C0280933B0280EE91E090932502A9
:102D50008093240280E491E09093230280932202E6
:102D600003E010E031E3E32E37E0F32E20913C0244
:102D7000822F82958F7090E0817099279093400206
:102D800080933F02E114F10481F069E070E08EE687
:102D900095E00E940B08B801C7010E940B0866E08D
:102DA00070E088E695E00E940B0860E08EE192E01A
:102DB0000E94740B60E08EE192E00E948109809194
:102DC0003D0290913E028838944909F00AC1109260
:102DD000730120EE3FEF50E040E070E060E08EE1F4
:102DE00092E00E94390BF0904902E0904A028091F3
:102DF0003B0280FF03C08EE2F82EE12C10E000E0E1
:102E000030E020E050E040E070E060E08EE192E0F1
:102E10000E94C70980913B0280FD10C070E060E015
:102E200080914502909146020E94580870E060E04F
:102E300080914702909148020E9458084398429816
:102E400085B18C7F9E2D9370892B85B98BB1837052
:102E50009E2D9C7F892B8BB94198419A85B18C7F9F
:102E60009F2D9370892B85B98BB183709F2D9C7F8B
:102E7000892B8BB94198419A429A84B18C7F84B94D
:102E80008AB183708AB920913B0230913C028091D3
:102E90003D0290913E0226FD0EC0409A4098409817
:102EA000409843B149B1409A20FD05C0893852E1AC
:102EB000950709F087C38131954139F4409A4098CC
:102EC0004098409883B189B1409AB90164707727DE
:102ED000409A40984098409824FF91C393B189B19B
:102EE00093708C7F982B409A409A409840984098D5
:102EF00043B189B143708C7F482B409A409A4098E7
:102F00004098409883B1E9B08370FE2DFC7F8F2BF1
:102F1000409A50E0672B09F45DC3E82EF12CFE2C9B
:102F2000EE24EE2488EFF82203E0440F551F0A95A3
:102F3000E1F7407E5770E42AF52A96959695969586
:102F4000E92A80917301882399F0C70165E096957D
:102F500087956A95E1F780729927A701569547955D
:102F60004F715527842B952BF0ECEF22E82AF92A94
:102F7000409A439A84B1836084B98AB18C6F8AB9CC
:102F800020FD14C00091280210912902015011095E
:102F900020912602309127022150310950E040E073
:102FA00070E060E08EE192E00E94C7092FE1E21636
:102FB0002FEFF206B1F486E08983AE014F5F5F4FD9
:102FC00061E08AE390E00E94DA0780913B029091F1
:102FD0003C028F7E90933C0280933B0281E0809381
:102FE000730161E08EE192E00E94740B70E060E09A
:102FF0008EE192E00E947B138FEF9FEF90932F0260
:1030000080932E02109231021092300280E1809360
:103010003202809333021092350210922B021092EA
:103020002A0210922D0210922C02E0918B01F09155
:103030008C0182E08083E0918701F0918801108209
:10304000E0918901F0918A018FEC808310929301C5
:10305000E0918F01F091900186E08083E0918D01F5
:10306000F0918E01808180618083E0918D01F091EB
:103070008E01808188608083E0918D01F0918E01C6
:10308000808180688083E0918D01F0918E01808144
:103090008F7D80836CE170E088E192E00E949A135A
:1030A00020911802309119028111D8C221153105E1
:1030B00019F0C9010E941D1D1092190210921802E8
:1030C00010921D0210921C0210921B0210921A0202
:1030D00044E0442E512C50E0652E50E0752E8BE7D5
:1030E00091E00E94D306892B09F4EFC21A8219825B
:1030F0001C821B821E821D82CE0101960E94C21379
:103100000E94850697FDB6C28F83188641E050E085
:10311000BE01695F7F4FCE0101960E94E513F0CF9B
:1031200041E8E41645E1F40609F401C298F486E2A8
:10313000E81685E1F80609F024CD83E194E0909348
:103140003C0280933B020CE010E09FE1E92E97E007
:10315000F92E0CCE92E0E91696E1F90609F4DBC1EE
:1031600087E194E1E3E5EE16E0E2FE0609F009CD21
:1031700090933C0280933B0203E010E057E8E52E79
:1031800056E0F52EF3CDF3E8EF16F7E7FF0609F466
:1031900056C108F04BC048E0E41644E5F40609F4D3
:1031A0008BC1F8F480E1E81683E5F80609F0E9CC74
:1031B00083E19EE090933C0280933B0280EE91E09D
:1031C000909325028093240280E491E0909323025F
:1031D0008093220202E010E08DE1E82E87E0F82ED5
:1031E000C5CD99E0E91698E6F90609F470C1E4E165
:1031F000EE16E8E6FE0609F0C4CC83E094E0909376
:103200003C0280933B0280EE91E0909325028093F4
:10321000240280E491E0909323028093220203E051
:1032200010E0BAE1EB2EB7E0FB2EA0CDF3E9EF16EC
:10323000F7E7FF0609F4B3C198F449E8E41647E755
:10324000F40609F09ECC83E194E090933C028093D5
:103250003B0201E410E0A9EDEA2EA6E0FA2E86CDAD
:1032600056E9E51657E7F50609F47DC181E3E8164E
:1032700080E8F80609F085CC83E194E190933C0264
:1032800080933B0202E110E0F7ECEF2EF6E0FF2E18
:103290006DCD98E3E91693E9F90609F442C1D0F53A
:1032A000F7E2EF16F3E9FF0609F41CC1F0F442E07F
:1032B000E41643E9F40609F431C140F480E9E81664
:1032C000F80609F05ECC83E194E1C6C090E2E9160D
:1032D00093E9F90609F4F0C0E5E2EE16E3E9FE062B
:1032E00009F04FCC80E091E1F4C0F9E2EF16F3E988
:1032F000FF0609F419C1B0F341E3E41643E9F4060B
:1033000031F055E3E51653E9F50609F03ACC80E0D3
:1033100090E1DFC089E8E81684E9F80608F042C0C9
:1033200097E8E91694E9F90608F036C1E1E8EE16E7
:10333000E4E9FE0609F414C1B0F420E4E21A23E93A
:10334000F20A42E0E416F10408F01BCC83E194E0B9
:1033500090933C0280933B0205E610E042E2E42EAB
:1033600046E0F42E03CD56E8E51654E9F50609F0DB
:1033700008CC83E094E090933C0280933B0280EE83
:1033800091E0909325028093240280E491E0909351
:103390002302809322020BE310E022EAE22E25E0D2
:1033A000F22EE4CC85E0E81685EBF806B1F048F49F
:1033B00083E194E1E1E1EE16ECEAFE0609F4D8CEF1
:1033C000E0CBF9E0EF16F5EBFF0609F4E8C025E0E5
:1033D000E21625ECF20609F0D4CB88E090E1909358
:1033E0003C0280933B0260EB70E084EF97E00AC000
:1033F00082E090E190933C0280933B026CE970E0A4
:1034000084E79BE00E945F09F12CE12CAFCC83E1C3
:1034100094E090933C0280933B0206E010E02BE2A4
:10342000E22E27E0F22EA2CC80E090E190933C02C5
:1034300080933B026CE970E088ED9AE0E3CF82E094
:1034400091E190933C0280933B0260E970E088E454
:103450009AE0D8CF83E094E190933C0280933B02C2
:1034600080EE91E0909325028093240280E491E025
:10347000909323028093220202E010E0E5ECEE2E0E
:10348000E6E0FE2E73CC83E194E190933C028093BE
:103490003B0280EE91E0909325028093240280E429
:1034A00091E090932302809322020DE110E078EAEC
:1034B000E72E76E0F72E5ACC84E090E190933C0220
:1034C00080933B0268ED70E080E799E09BCF82E05B
:1034D00091E190933C0280933B026CEC70E084EAB3
:1034E00098E090CF83E094E090933C0280933B027D
:1034F00080E991E0909325028093240280EF90E090
:1035000090932302809322020EE110E06AE8E62EF7
:1035100066E0F62E2BCC83E195E02ACE83E094E0A2
:1035200027CE83E194E024CE83E096E121CE83E1AF
:1035300094E090933C0280933B0280EE91E0909364
:1035400025028093240280E491E0909323028093EB
:10355000220205E410E03DEDE32E35E0F32E06CC2B
:1035600087E094E0E6CF83E094E090933C02809380
:103570003B0280EE91E0909325028093240280E448
:1035800091E090932302809322020BE210E097E7F0
:10359000E92E95E0F92EEACB83E194E0E6CF80E0D6
:1035A00090E190933C0280933B0260EC70E084E3F6
:1035B00097E00E945F0980E991E090932502809353
:1035C000240222CF409A40984098409843B149B194
:1035D000409A71CCE92EF12CFE2CEE24EE2498EFCB
:1035E000F922B3E0440F551FBA95E1F7407E5770BA
:1035F000E42AF52A869586958695E82AA2CCE3B03A
:1036000099B1409A409A40984098409883B149B106
:1036100083704C7F842B409AEE2DE370EE2E9C7FBE
:10362000E92AFE2CE82E23FF03C0F826EF24FE240F
:10363000672B09F486CCC701807E9770A701452FC0
:103640005527469546954695842B952BFE2CEE24C2
:10365000FF0CFF0CFF0CE82AF92A73CC8CE190E0F8
:1036600090931D0280931C026FE471E0C9010E94D7
:10367000711E2ECD8091180290911902009709F4C5
:103680009AC069817A816115710509F492C04091EF
:103690001A0250911B022D813E814217530708F4F4
:1036A00088C00E94711E8D819E8190931D0280931F
:1036B0001C0289819A810E941D1D45E050E066E64A
:1036C00071E088E192E00E94E513809026029090DC
:1036D0002702A0901C02B0901D02009128021091B8
:1036E000290217FF02C00D5F1F4F1595079515950D
:1036F0000795065F1F4FF12CE12CEA14FB040CF038
:1037000089C08091740190917501FC01EE0FFF1F3B
:10371000E75FFE4F208131813093310220933002E8
:1037200030932F0220932E020196B2010E94531C67
:10373000909375018093740170E060E08EE192E0F7
:103740000E947B131A8219821C821B821E821D8298
:10375000CE0101960E94C213D12CC12CC814D904E9
:103760000CF040C0C7018C0D9D1DB5010E94531C7B
:1037700020911C0230911D028217930788F5209139
:103780001802309119022115310551F1280F391F06
:10379000F90180818F83188641E050E0BE01695FA6
:1037A0007F4FCE0101960E94E513FFEFCF1ADF0A8B
:1037B000D5CF0E941D1D89819A8190931902809313
:1037C00018028B819C8190931B0280931A028D8139
:1037D0009E8190931D0280931C021A82198269CFE8
:1037E00080E0D8CF10922B0210922A0210932D0263
:1037F00000932C024D815E8169817A818EE192E095
:103800000E94350689819A810E941D1D2FEFE21AC0
:10381000F20A73CF6114710409F461CC0E94DF06CF
:10382000882309F45CCC0E94000059CC80911802D6
:10383000909119020C941D1D2F923F924F925F920E
:103840006F927F928F929F92AF92BF92CF92DF92B0
:10385000EF92FF920F931F93CF93DF93CDB7DEB715
:10386000CA1BDB0B0FB6F894DEBF0FBECDBF0994A9
:103870002A88398848885F846E847D848C849B8400
:10388000AA84B984C884DF80EE80FD800C811B810E
:10389000AA81B981CE0FD11D0FB6F894DEBF0FBE3D
:1038A000CDBFED01089597FB072E16F4009407D0C5
:1038B00077FD09D00E94671C07FC05D03EF4909567
:1038C00081959F4F0895709561957F4F0895AA1B2C
:1038D000BB1B51E107C0AA1FBB1FA617B70710F0FB
:1038E000A61BB70B881F991F5A95A9F7809590952D
:1038F000BC01CD010895EE0FFF1F0590F491E02D5E
:1039000009940F931F93CF93DF938230910510F4A6
:1039100082E090E0E0915502F091560230E020E024
:10392000B0E0A0E0309799F42115310509F44AC0C0
:10393000281B390B24303105D8F58A819B8161150C
:10394000710589F1FB0193838283FE0111C04081DF
:1039500051810281138148175907E0F04817590730
:1039600099F4109761F012960C93129713961C938A
:103970003296CF01DF91CF911F910F91089500935F
:10398000550210935602F4CF2115310551F042171C
:10399000530738F0A901DB019A01BD01DF01F801ED
:1039A000C1CFEF01F9CF9093560280935502CDCF4E
:1039B000FE01E20FF31F8193919322503109398365
:1039C0002883D7CF2091530230915402232B41F406
:1039D000209102013091030130935402209353024D
:1039E00020910001309101012115310541F42DB7DD
:1039F0003EB74091040150910501241B350BE09125
:103A00005302F0915402E217F307A0F42E1B3F0B70
:103A10002817390778F0AC014E5F5F4F2417350740
:103A200048F04E0F5F1F509354024093530281930E
:103A300091939FCFF0E0E0E09CCFCF93DF9300978E
:103A4000E9F0FC01329713821282A0915502B091E5
:103A50005602ED0130E020E01097A1F42081318181
:103A6000820F931F20915302309154022817390777
:103A700009F061C0F0935402E0935302DF91CF91BB
:103A80000895EA01CE17DF07E8F54A815B819E01C0
:103A900041155105B1F7E901FB83EA834991599139
:103AA000C40FD51FEC17FD0761F480819181029648
:103AB000840F951FE90199838883828193819B8379
:103AC0008A83F0E0E0E012968D919C911397009725
:103AD000B9F52D913C911197CD010296820F931F5C
:103AE00020915302309154022817390739F6309744
:103AF00051F51092560210925502B0935402A093C1
:103B00005302BCCFD383C28340815181840F951F60
:103B1000C817D90761F44E5F5F4F88819981480FBC
:103B2000591F518340838A819B819383828321150E
:103B3000310509F0B0CFF0935602E09355029ECFC5
:103B4000FD01DC01C0CF13821282D7CFB0E0A0E02C
:103B5000ECEAFDE10C941E1C8C01009751F4CB01A2
:103B60000E94811C8C01C801CDB7DEB7E0E10C9446
:103B70003A1CFC01E60FF71F9C0122503109E217A5
:103B8000F30708F49DC0D901CD91DC911197C617B8
:103B9000D70798F0C530D10530F3CE0104978617CA
:103BA000970708F3C61BD70B2297C193D1936D9348
:103BB0007C93CF010E941D1DD6CF5B01AC1ABD0ABC
:103BC0004C018C0E9D1EA0915502B0915602512CB5
:103BD000412CF12CE12C109731F5809153029091FA
:103BE00054028815990509F05CC04616570608F07E
:103BF00058C08091000190910101009741F48DB768
:103C00009EB74091040150910501841B950BE81764
:103C1000F90708F055C0F0935402E0935302F901FC
:103C200071836083A0CF8D919C91119712966C90B7
:103C3000129713967C901397A815B90559F56C0146
:103C400042E0C40ED11CCA14DB0420F1AC014A19B5
:103C50005B09DA011296159780F0628273825183B4
:103C60004083D9016D937C93E114F10471F0D70185
:103C70001396FC93EE93129776CF22968C0F9D1F8E
:103C8000F90191838083F301EFCFF0935602E09323
:103C9000550269CF4816590608F42C017D01D3015D
:103CA0009ACFCB010E94811C7C01009749F0AE01A4
:103CB000B8010E94681EC8010E941D1D870153CFD4
:103CC00010E000E050CF81E090E0F8940C94781E72
:103CD000FB01DC0102C001900D9241505040D8F729
:103CE0000895FB01DC0101900D920020E1F7089599
:103CF00016E0C9E0D6E004C0FE010E947B1C2196BC
:0A3D0000CA30D107C9F7F894FFCFCD
:103D0A00000057028000FF8357E0FF00F8E007FF3A
:103D1A00FF000000001507350662066207D3067128
:103D2A0006C506000000001E103506781334063951
:103D3A000B9B12C4129C12B812AC12CB129B1274B7
:103D4A000B8109CF0DBC0D770A7B134F11F0104D73
:103D5A006572727920204368726973746D61732188
:0C3D6A00202020202020202020202000ED
:107E0000112484B714BE81FFF0D085E080938100F7
:107E100082E08093C00088E18093C10086E0809377
:107E2000C20080E18093C4008EE0C9D0259A86E02C
:107E300020E33CEF91E0309385002093840096BBD3
:107E4000B09BFECF1D9AA8958150A9F7CC24DD24C4
:107E500088248394B5E0AB2EA1E19A2EF3E0BF2EE7
:107E6000A2D0813461F49FD0082FAFD0023811F036
:107E7000013811F484E001C083E08DD089C08234E0
:107E800011F484E103C0853419F485E0A6D080C0E4
:107E9000853579F488D0E82EFF2485D0082F10E0AE
:107EA000102F00270E291F29000F111F8ED06801E7
:107EB0006FC0863521F484E090D080E0DECF843638
:107EC00009F040C070D06FD0082F6DD080E0C81688
:107ED00080E7D80618F4F601B7BEE895C0E0D1E017
:107EE00062D089930C17E1F7F0E0CF16F0E7DF06D8
:107EF00018F0F601B7BEE89568D007B600FCFDCFD4
:107F0000A601A0E0B1E02C9130E011968C91119780
:107F100090E0982F8827822B932B1296FA010C0160
:107F200087BEE89511244E5F5F4FF1E0A038BF0790
:107F300051F7F601A7BEE89507B600FCFDCF97BE46
:107F4000E89526C08437B1F42ED02DD0F82E2BD052
:107F50003CD0F601EF2C8F010F5F1F4F84911BD097
:107F6000EA94F801C1F70894C11CD11CFA94CF0C13
:107F7000D11C0EC0853739F428D08EE10CD085E9AC
:107F80000AD08FE07ACF813511F488E018D01DD067
:107F900080E101D065CF982F8091C00085FFFCCF94
:107FA0009093C60008958091C00087FFFCCF809118
:107FB000C00084FD01C0A8958091C6000895E0E648
:107FC000F0E098E1908380830895EDDF803219F02E
:107FD00088E0F5DFFFCF84E1DECF1F93182FE3DFCA
:107FE0001150E9F7F2DF1F91089580E0E8DFEE27F6
:047FF000FF270994CA
:027FFE00040479
:0400000300007E007B
:00000001FF
